S0150000504C5F436F6E74726F6C6C65722E73726563F0
S113000012C02CC02BC02AC029C028C027C026C0BB
S113001025C040C823C057C921C082C92CC01EC0F6
S11300201DC01CC01BC011241FBECFE5D4E0DEBF21
S1130030CDBF10E0A0E6B0E0EEECF6E102C0059022
S11300400D92A437B107D9F721E0A4E7B0E001C0CD
S11300501D92A938B207E1F758D637CBD1CF8EE835
S113006086B9E0917400F0E0E05AFF4F8081806C23
S113007087B9369A08951F920F920FB60F921124E2
S11300808F939F93EF93FF93E091740084B195B1A4
S1130090F0E0EE0FFF1FE151FF4F918380838091C9
S11300A074008F5F8093740080917400853010F029
S11300B010927400E0917400F0E0E05AFF4F8081E8
S11300C0806C87B9369AFF91EF919F918F910F9031
S11300D00FBE0F901F901895EDE0F1E0118282E0C1
S11300E0828381E0838308959C9B04C09B9B04C00E
S11300F082E0089583E0089581E008959D9B07C000
S113010080B382FB882780F991E08927089582E0F3
S113011008952F923F924F925F926F927F928F92A7
S11301209F92AF92BF92CF92DF92EF92FF920F9382
S11301301F93CF93DF93CDB7DEB764970FB6F894D0
S1130140DEBF0FBECDBF1C014B015C874B873E87D2
S11301502D87188B0F87FE0131968AE0DF011D92EF
S11301608A95E9F74FEE50E0A1E1B1E07F01F70194
S113017020813181CD0117E0FC0164857585778785
S11301806687260F371F115002971111F5CFFA0118
S113019081919191AF0111969C938E93280F391FF1
S11301A0F701219331937F015096F1E0A136BF0707
S11301B0F1F669817A8133E0769567953A95E1F7AE
S11301C080E090E06AD92DE030EE4DEC5FE3F3D9A6
S11301D021EA37E64BEB5FE3D0D820E030E04CE097
S11301E052E4CBD82ED9698B7A8B8B8B9C8B0B8169
S11301F01C8143E0169507954A95E1F70115110511
S1130200A9F0B80180E090E048D926E636E64EEC45
S11302105FE3D1D92DE53DE64AE051E4ADD820E0D5
S113022030E044E352E4A9D80CD98B01ED80FE8080
S113023023E0F694E7942A95E1F7F9E0EF16F10448
S113024080F0B70180E090E028D925EE31E647EA56
S113025050E4B1D922EF32E549E752E48ED8F1D81F
S11302607B01AF80B88493E0B694A7949A95E1F7A4
S11302702CE3A216B10480F0B50180E090E00DD922
S113028029E537E14FE85FE396D92EE93FE644E9F3
S113029052E473D8D6D85B01C984DA8483E0D69457
S11302A0C7948A95E1F73CE3C316D10480F0B60104
S11302B080E090E0F2D829E537E14FE85FE37BD9AD
S11302C02EE93FE644E952E458D8BBD86B01B801A3
S11302D080E090E0E2D82B013C01B70180E090E09F
S11302E0DCD822E133E840E45DE365D99B01AC014D
S11302F0C301B20141D8E989FA89D401ED93FC9391
S1130300A0D8D1016D937C93EB85FC85F182E082CA
S1130310AD85BE85AD92BC92EF85F889D182C0824D
S113032064960FB6F894DEBF0FBECDBFDF91CF91B8
S11303301F910F91FF90EF90DF90CF90BF90AF90FF
S11303409F908F907F906F905F904F903F902F90F1
S11303500895882399F18091C8009091C90084324E
S1130360944040F1C79A8091C8009091C9008C3E96
S11303709440D8F0959A8091C8009091C900803536
S1130380954070F0969A8091C8009091C9008C387D
S1130390954010F0979A089582B3805882BB0895CF
S11303A092B380E4892782BB0CC092B380E2892790
S11303B082BB06C088B3805888BB01C0C798959893
S11303C09698979808958091C4009091C500892BC0
S11303D091F48091C6009091C7008C589540813566
S11303E0910580F48091C8009091C90081359540B1
S11303F050F4949A08958091C8009091C90081396D
S1130400954008F0949808950F931F93CF93DF932A
S1130410E1EBF0E047EB50E02FE930E085EA90E0D3
S1130420CBEAD0E009E910E011921192DA011D92B1
S11304301D92AD01D9011D921D929D01DC011D92F9
S11304401D92CD0119921992D8011D921D928D0110
S1130450B0E0E73BFB0741F7DF91CF911F910F918C
S11304600895CF934BDE8093100190917600891705
S113047071F08093760010920F0181E080937500F3
S11304801092BE001092BF001092BD00BDDFC0915B
S11304901001C13031F008F41BC1C23009F464C04A
S11304A01DC1C69821DE80930F01909178008917B1
S11304B059F080937800C09377001092BE00109298
S11304C0BF001092BD00A0DF8091C8009091C900C8
S11304D0863124E0920750F481E03BDF60E070E075
S11304E080E090E098D410920F01F8C083339440D8
S11304F008F4F4C080910F018230B1F0833021F010
S1130500813009F0EBC020C080910E01833039F4B2
S11305108091D200882309F4DBC01092D20062ECEF
S113052071E082EC91E0D8C080910E01833039F4FF
S11305308091D200882309F4CBC01092D20060E9E4
S113054071E080E991E0C8C080910E01833039F4F4
S11305508091D200882309F4BBC01092D2006CE2CF
S113056071E08CE291E0B8C0C69A80917B00882348
S113057009F455C010927B0098B380E4892788BBA6
S11305808091F900880F8056982F990F990F890F41
S11305909091FA00890F803309F041C08091FB00EB
S11305A0880F8056982F990F990F890F9091FC000E
S11305B09053890F8093800090910E01891711F058
S11305C0843069F58091FD00880F8056982F990F2B
S11305D0990F890F9091FE009053890F80930F011A
S11305E090917800891761F08093780081E080937E
S11305F077001092BE001092BF001092BD0004DF7D
S113060040910E0128EE33E0429FC001439F900DBC
S113061011248C509E4F90937A008093790080919E
S1130620C8009091C900863124E0920708F454CFA1
S11306308333944008F452C080910E01909180005D
S1130640891719F0943009F049C0C0910F01C130E5
S113065051F1F0F1C230D1F0C33009F03FC0833022
S113066081F48091D200882319F01092D20009C03D
S113067060E070E080E090E0CED381E080937F0082
S11306802DC062EC71E082EC91E0F6CF833031F45E
S11306908091D200882361F31092D20060E971E066
S11306A080E991E0E9CF833059F48091D200882326
S11306B0F9F21092D2006CE271E08CE291E0DCCFAE
S11306C06CE271E08CE291E0A6D3C0937F0006C097
S11306D060E070E080E090E0CF919DC3CF910895F9
S11306E0CF92DF92EF92FF920F931F93CF9380915B
S11306F00F01833009F069C08091CE009091CF0042
S11307002091B5003091B6002817390720F4909352
S1130710B6008093B5002091BB003091BC00211538
S1130720310519F08217930720F49093BC0080934D
S1130730BB008091CC009091CD002091A900309114
S1130740AA002817390720F49093AA008093A900DF
S11307502091AF003091B0002115310519F08217B6
S1130760930720F49093B0008093AF002091B500DC
S11307703091B6000091BB001091BC00F901E00F6C
S1130780F11FF695E795F093A400E093A300609120
S1130790A9007091AA008091AF009091B000AB01C4
S11307A0480F591F5695479550939E0040939D00BE
S11307B07B01E81AF90ACAE0C49FC001C59F900DE5
S11307C01124B2E8CB2ED12CD7C0823009F069C0F5
S11307D08091CE009091CF002091B3003091B4006D
S11307E02817390720F49093B4008093B300209124
S11307F0B9003091BA002115310519F08217930719
S113080020F49093BA008093B9008091CC00909129
S1130810CD002091A7003091A8002817390720F4B3
S11308209093A8008093A7002091AD003091AE0072
S11308302115310519F08217930720F49093AE0027
S11308408093AD002091B3003091B4000091B900C1
S11308501091BA00F901E00FF11FF695E795F093B6
S1130860A200E093A1006091A7007091A80080917C
S1130870AD009091AE00AB01480F591F56954795B6
S113088050939C0040939B007B01E81AF90ACAE04C
S1130890C49FC001C59F900D1124B4E6CB2ED12C6A
S11308A06BC0813009F07AC08091CE009091CF0066
S11308B02091B1003091B2002817390720F49093A9
S11308C0B2008093B1002091B7003091B800211597
S11308D0310519F08217930720F49093B8008093A0
S11308E0B7008091CC009091CD002091A50030916B
S11308F0A6002817390720F49093A6008093A5003A
S11309002091AB003091AC002115310519F082170C
S1130910930720F49093AC008093AB002091B10036
S11309203091B2000091B7001091B800F901E00FC6
S1130930F11FF695E795F093A000E0939F00609176
S1130940A5007091A6008091AB009091AC00AB0122
S1130950480F591F5695479550939A004093990014
S11309607B01E81AF90ACAE0C49FC001C59F900D33
S11309701124BAE5CB2ED12CB60180D6E616F706A3
S113098078F4201B310BCE9FC001CF9F900D112412
S1130990B60174D681E02617370718F480E001C049
S11309A081E0CF911F910F91FF90EF90DF90CF9056
S11309B008958091CA009091CB00029708F42CC14D
S11309C02091A3003091A4002115310559F14AE08A
S11309D0429FC001439F900D11246091B500709116
S11309E0B6002091BB003091BC00621B730B46D64D
S11309F07093980060939700809191009091920079
S1130A00009761F06A3F710548F4861B970B8035A7
S1130A10910520F081E08093BD0004C070939200A2
S1130A206093910020919D0030919E002115310525
S1130A3059F14AE0429FC001439F900D11246091F7
S1130A40A9007091AA002091AF003091B000621B00
S1130A50730B14D670938C0060938B008091850087
S1130A6090918600009761F06A3F710548F4861BF7
S1130A70970B8035910520F081E08093BD0004C080
S1130A8070938600609385002091A1003091A200AC
S1130A902115310559F14AE0429FC001439F900D51
S1130AA011246091B3007091B4002091B900309189
S1130AB0BA00621B730BE2D57093960060939500A5
S1130AC080918F0090919000009761F06A3F7105CA
S1130AD048F4861B970B8035910520F081E08093C4
S1130AE0BD0004C07093900060938F0020919B0020
S1130AF030919C002115310559F14AE0429FC00113
S1130B00439F900D11246091A7007091A80020913B
S1130B10AD003091AE00621B730BB0D570938A00A8
S1130B20609389008091830090918400009761F024
S1130B306A3F710548F4861B970B8035910520F0B8
S1130B4081E08093BD0004C07093840060938300AF
S1130B5020919F003091A0002115310559F14AE000
S1130B60429FC001439F900D11246091B100709188
S1130B70B2002091B7003091B800621B730B7ED590
S1130B80709394006093930080918D0090918E00F7
S1130B90009761F06A3F710548F4861B970B803516
S1130BA0910520F081E08093BD0004C070938E0015
S1130BB060938D002091990030919A0021153105A0
S1130BC059F14AE0429FC001439F900D1124609166
S1130BD0A5007091A6002091AB003091AC00621B7F
S1130BE0730B4CD5709388006093870080918100CB
S1130BF090918200009761F06A3F710548F4861B6A
S1130C00970B8035910520F081E08093BD00089515
S1130C10709382006093810008952CD3892B09F48A
S1130C2041C0E9D28A3071F480917B00811103C004
S1130C3081E080937B0010927C0010927D001092E2
S1130C407E0038C390917C0091111CC0E0917E001D
S1130C50F0E0EE58FF4F908189130DC080917E0023
S1130C608F5F80937E0080917E008230D8F081E097
S1130C7080937C0004C010927E0010927C0010923D
S1130C807D00089590917E009F5F90937E00E09197
S1130C907D00F0E0E750FF4F808380917D008F5FFF
S1130CA080937D0008958DE690E0E3D260910E017B
S1130CB070E081E691E03ED381E691E0C8D261E044
S1130CC070E081E691E045D381E691E0C0D28AE00C
S1130CD0BAC28FEF87BB14BA82EF81BB82B38F7025
S1130CE082BB88B318BA0895F8942FEF80E792E096
S1130CF0215080409040E1F700C00000EADF72D04C
S1130D0079D0ADD967D27894E7C9EEDFC0E4D4E1F5
S1130D108AE0F82E8091D600882369F01092D600DC
S1130D2000EC10E022EC30E044EC50E066EC70E0C3
S1130D3088EC90E0EED98091D500882371F0109270
S1130D40D5006BDF8091BD00811102C08ADB05C034
S1130D5060E070E080E090E05ED08091D400882371
S1130D60B9F01092D4008091BE008A3088F0B8DCCB
S1130D70882329F08091BF008F5F8093BF0080910A
S1130D80BF00853128F0D093BF0088B38C2788BB7F
S1130D908091D300882309F4BDCF1092D3008091B1
S1130DA07700811104C080917500882371F08091CF
S1130DB0BE008F5F8B3018F48093BE0006C0F092A3
S1130DC0BE001092770010927500FDDA8091C40085
S1130DD09091C500892B11F081E001C080E0B9DA5F
S1130DE0E8DD98CF83E083BF82E882BF89B7816062
S1130DF089BF08958FB582608FBD8EB589618EBD20
S1130E001DBC1CBC87E287BD8FE086BD1BBC1ABC21
S1130E1019BC18BC0895AF92BF92CF92DF92EF92A3
S1130E20FF920F931F93CF93DF93FB01009709F475
S1130E3073C023E030E0C0E0D0E0D901AA0FBB1FAB
S1130E40AB58BE4F4D915C91D901AA0FBB1FA95855
S1130E50BE4F11965C934E934D915C91C40FD51F78
S1130E602150310950F72091C2003091C300821BF8
S1130E70930B9093760180937501E0907501F09047
S1130E8076014091750150917601009165001091B1
S1130E906600C0907501D0907601A0907701B09063
S1130EA078012091670030916800429FC001439F00
S1130EB0900D529F900D1124B801F4D38091CE006F
S1130EC09091CF009B01280F391FCA18DB0840916D
S1130ED06B0050916C00C49EC001C59E900DD49EC1
S1130EE0900D1124B801DED3260F371FCE0DDF1D60
S1130EF04091690050916A00C49FC001C59F900D44
S1130F00D49F900D1124B801CDD3620F731F709339
S1130F10CF006093CE0004C01092CF001092CE0098
S1130F20309709F472C083E090E0C0E0D0E0DC01C7
S1130F30AA0FBB1FA158BE4F2D913C91DC01AA0FF3
S1130F40BB1FAF57BE4F11963C932E932D913C91EE
S1130F50C20FD31F019758F78091C0009091C10030
S1130F60E81BF90BF0938001E0937F0100917F016E
S1130F701091800140917F0150918001E0916500C2
S1130F80F0916600E0907F01F0908001C0908101B3
S1130F90D09082012091670030916800429FC00187
S1130FA0439F900D529F900D1124BF017BD38091DC
S1130FB0CC009091CD009B01280F391FEC18FD083F
S1130FC040916B0050916C00E49EC001E59E900D31
S1130FD0F49E900D1124BF0165D3260F371FC00F57
S1130FE0D11F4091690050916A00C49FC001C59F00
S1130FF0900DD49F900D1124BF0154D3620F731F21
S11310007093CD006093CC0004C01092CD00109278
S1131010CC008091CE009091CF008031974230F087
S11310208FE097E29093CF008093CE008091CC0024
S11310309091CD008031974230F08FE097E2909309
S1131040CD008093CC008091CE009091CF0000978A
S113105029F09BBD8ABD8FB5806802C08FB58F779C
S11310608FBD8091CC009091CD00009729F099BD5F
S113107088BD8FB5806202C08FB58F7D8FBDDF9133
S1131080CF911F910F91FF90EF90DF90CF90BF9081
S1131090AF9008951F920F920FB60F9211242F93C1
S11310A03F934F935F936F937F938F939F93AF93EC
S11310B0BF93EF93FF9382E882BF8091D000909119
S11310C0D10001969093D1008093D00021E0209329
S11310D0D6008091D0009091D1006AE070E0CED229
S11310E0892B11F42093D50080910E01833069F08F
S11310F08091D0009091D10064E670E0BFD2892B3A
S113110001F581E08093D4001CC08091D0009091BF
S1131110D10062E370E0B2D2892B19F481E08093AC
S1131120D4008091D0009091D10064EF71E0A6D2F8
S1131130892B39F480910F01882319F081E0809381
S1131140D2008091D0009091D10068EE73E096D2E5
S1131150892BC1F481E08093D3008091CA009091DF
S1131160CB0001969093CB008093CA008091CA0073
S11311709091CB008837910528F01092CB00109203
S1131180CA0042D98091790090917A00892B81F02C
S11311908091790090917A00019790937A008093DE
S11311A079008091790090917A00892B09F47BDD94
S11311B0A895FF91EF91BF91AF919F918F917F91EE
S11311C06F915F914F913F912F910F900FBE0F90B0
S11311D01F90189586E080BD83E389B910BC8AB15D
S11311E088698AB91092DA001092D9001092D80056
S11311F01092D70008952091D9003091DA0080919F
S1131200D7009091D80028173907A9F3E091D900A5
S1131210F091DA00E552FF4F80812091D90030919E
S1131220DA002F5F3F4F3093DA002093D9002091EA
S1131230D9003091DA002431310521F41092DA001A
S11312401092D90008955D9BFECF8CB908950F9339
S11312501F93CF938C01C0E0F801EC0FF11D808146
S1131260882319F0F0DFCF5FF7CFCF911F910F9153
S11312700895EDCF2091D7003091D8008091D90006
S11312809091DA002817390748F08091D70090919F
S1131290D8002091D9003091DA0009C08091D7009C
S11312A09091D8002091D9003091DA004496821BA5
S11312B0930B08958091D7009091D8009093DA0011
S11312C08093D90008951F920F920FB60F921124A4
S11312D08F939F93EF93FF93E091D700F091D80001
S11312E08CB1E552FF4F80838091D7009091D80054
S11312F001969093D8008093D7008091D700909165
S1131300D800449721F41092D8001092D700FF918E
S1131310EF919F918F910F900FBE0F901F90189592
S11313201F920F920FB60F9211240F900FBE0F90C1
S11313301F901895FC01CB012AE030E0B9019ED141
S1131340805D8183CB01B90199D1805D8083128254
S11313500895CF93DF939C01FC013396CAE0D0E05B
S1131360CB01BE018BD1805D8293E217F307C1F7F5
S11313701382DF91CF9108955058BB27AA270ED02E
S1131380E0C0D1D030F0D6D020F031F49F3F11F43A
S11313901EF4C6C00EF4E095E7FBBCC0E92FE2D012
S11313A080F3BA17620773078407950718F071F47E
S11313B09EF5FAC00EF4E0950B2EBA2FA02D0B016A
S11313C0B90190010C01CA01A0011124FF27591B86
S11313D099F0593F50F4503E68F11A16F040A22F8C
S11313E0232F342F4427585FF3CF469537952795FD
S11313F0A795F0405395C9F77EF41F16BA0B620BFC
S1131400730B840BBAF09150A1F0FF0FBB1F661F42
S1131410771F881FC2F70EC0BA0F621F731F841F85
S113142048F4879577956795B795F7959E3F08F0AB
S1131430B3CF9395880F08F09927EE0F979587956A
S1131440089598D088F09F5790F0B92F9927B751F5
S1131450A0F0D1F0660F771F881F991F1AF0BA9574
S1131460C9F712C0B13081F09FD0B1E008959CC09B
S1131470672F782F8827B85F39F0B93FCCF386956A
S113148077956795B395D9F73EF4909580957095C7
S113149061957F4F8F4F9F4F0895E89409C097FB44
S11314A03EF490958095709561957F4F8F4F9F4F37
S11314B09923A9F0F92F96E9BB279395F69587957B
S11314C077956795B795F111F8CFFAF4BB0F11F43E
S11314D060FF1BC06F5F7F4F8F4F9F4F16C08823E5
S11314E011F096E911C0772321F09EE8872F762F1B
S11314F005C0662371F096E8862F70E060E02AF05C
S11315009A95660F771F881FDAF7880F9695879547
S113151097F9089597F99F6780E870E060E008956F
S11315209FEF80EC089500240A94161617061806F7
S11315300906089500240A941216130614060506D3
S11315400895092E0394000C11F4882352F0BB0F64
S113155040F4BF2B11F460FF04C06F5F7F4F8F4FC7
S11315609F4F089557FD9058440F551F59F05F3F02
S113157071F04795880F97FB991F61F09F3F79F0B1
S113158087950895121613061406551FF2CF469533
S1131590F1DF08C0161617061806991FF1CF8695B5
S11315A07105610508940895E894BB276627772799
S11315B0CB0197F908950BD0C4CFB5DF28F0BADF7B
S11315C018F0952309F0A6CFABCF1124EECFCADFD4
S11315D0A0F3959FD1F3950F50E0551F629FF00142
S11315E0729FBB27F00DB11D639FAA27F00DB11D9B
S11315F0AA1F649F6627B00DA11D661F829F222724
S1131600B00DA11D621F739FB00DA11D621F839FAA
S1131610A00D611D221F749F3327A00D611D231F80
S1131620849F600D211D822F762F6A2F11249F57CE
S113163050408AF0E1F088234AF0EE0FFF1FBB1FF1
S1131640661F771F881F91505040A9F79E3F510590
S113165070F060CFAACF5F3FECF3983EDCF3869541
S113166077956795B795F795E7959F5FC1F7FE2B3B
S1131670880F911D9695879597F90895AA1BBB1B12
S113168051E107C0AA1FBB1FA617B70710F0A61B7E
S1131690B70B881F991F5A95A9F780959095BC019F
S11316A0CD01089597FB072E16F4009406D077FD1C
S11316B008D0E4DF07FC05D03EF4909581959F4F58
S11116C00895709561957F4F0895F894FFCFBB
S11316CE000102060764000A0001000200415430C2
S10716DE310041543E
S9030000FC
