S0110000504C5F52454D4F54452E737265634C
S113000033C14DC14CC14BC14AC149C148C147C1AB
S113001046C151C444C17FC542C1AAC540C13FC104
S11300203EC13DC13CC1E4C2CEC20BC30AC309C335
S1130030F2C2D0C206C305C3BFC2E2C2D2C201C368
S113004000C3FFC2F2C20000000000000000002F45
S1130050000000000700070000147F147F14002430
S11300602A7F2A120062640813230036495522505D
S113007000000503000000001C2241000000412292
S11300801C000014083E08140008083E080800007C
S113009000A0600000080808080800006060000074
S11300A0002010080402003E5149453E0000427FF2
S11300B04000004261514946002141454B3100183E
S11300C014127F10002745454539003C4A49493000
S11300D000017109050300364949493600064949BA
S11300E0291E0000363600000000563600000008C5
S11300F014224100001414141414000041221408A2
S113010000020151090600324959513E007C121186
S1130110127C007F49494936003E41414122007F1B
S11301204141221C007F49494941007F09090901D5
S1130130003E4149497A007F0808087F0000417F5A
S11301404100002040413F01007F08142241007F0C
S113015040404040007F020C027F007F0408107F73
S1130160003E4141413E007F09090906003E4151DC
S1130170215E007F09192946004649494931000199
S1130180017F0101003F4040403F001F2040201FED
S1130190003F4038403F00631408146300070870B0
S11301A0080700615149454300007F414100005563
S11301B02A552A55000041417F000004020102042F
S11301C0004040404040000001020400002054541C
S11301D05478007F4844443800384444442000386C
S11301E04444487F00385454541800087E090102DE
S11301F00018A4A4A47C007F080404780000447DB3
S11302004000004080847D00007F102844000000EE
S1130210417F4000007C04180478007C08040478C2
S113022000384444443800FC2424241800182424AE
S113023018FC007C080404080048545454200004AA
S11302403F444020003C4040207C001C2040201CB7
S1130250003C4030403C004428102844001CA0A02E
S1130260A07C004464544C4411241FBECFE5D4E068
S1130270DEBFCDBF10E0A0E6B0E0E4EFFBE002C0DB
S113028005900D92AE3AB107D9F723E0AEEAB0E09B
S113029001C01D92A237B207E1F7DDD2A9C4B0CEE6
S11302A0CF92DF92EF92FF928091F200880F8056F6
S11302B0982F990F990F890F9091F300890F81332B
S11302C009F05EC02091F40030E02053310980E150
S11302D097E2289FA001299F500D389F500D1124AB
S11302E02091F50030E02053310968EE73E0269F39
S11302F0C001279F900D369F900D1124840F951FE8
S11303002091F60030E02053310964E6629FA00199
S1130310639F500D1124840F951F2091F70030E046
S1130320205331096AE0629FA001639F500D11249C
S1130330840F951F2091F80030E020533109820F7B
S1130340931F6C01092E000CEE08FF08E6E0F1E0B3
S113035020E030E0419151914115510551F060E0A8
S113036070E0C416D506E606F70651F02F5F3F4F3E
S1130370F1CF220F331FF901EA5FFE4F918380838F
S1130380FF90EF90DF90CF900895EF92FF920F933C
S11303901F93CF93DF93C6E0D1E08EE5E82E83E090
S11303A0F82E40E050E060E070E0E0E0F0E0A0E033
S11303B0B0E080E090E02991399121153105C9F030
S11303C00196283E13E0310710F4119612C0203D27
S11303D017E0310710F431960CC0283B1BE03107BD
S11303E018F46F5F7F4F05C0203A3F4010F44F5F11
S11303F05F4FEC16FD06F9F69093F1008093F00040
S1130400B093E900A093E800F093EB00E093EA00D6
S11304107093ED006093EC005093EF004093EE0076
S1130420DF91CF911F910F91FF90EF9008958091EC
S1130430AE00882321F01092AE0032DFA6DF4CE339
S113044060E080E0CCD14EE360E08EE4C8D141E6C8
S113045050E061E080E0C9D1E0916000F0E0EE544A
S1130460FF4F4081405D61E08EE4B9D14DE650E03C
S113047065E080E0BAD1809160008230F9F028F420
S1130480882341F0813081F00895833009F184306C
S113049049F1089546E750E060E084E1A6D1609117
S11304A0E8007091E90027C04FE750E060E084E184
S11304B09CD16091EA007091EB001DC048E850E0C7
S11304C060E084E192D16091EC007091ED0013C082
S11304D041E950E060E084E188D16091EE007091E0
S11304E0EF0009C04AE950E060E084E17ED1609108
S11304F0F0007091F1008EE593E044D34EE553E0B3
S113050065E081E472C1E6E0F1E08EE593E01192EA
S113051011928E179F07D9F71092E9001092E80004
S11305201092EB001092EA001092ED001092EC0091
S11305301092EF001092EE001092F1001092F00071
S11305400895CF93C82FDFDFC11125C089EA90E059
S1130550C1D260E070E08EE593E027D38EE593E0AE
S1130560A7D26091600070E08EE593E01ED38EE523
S113057093E09ED2E0916000F0E0EE54FF4F608182
S113058070E08EE593E011D38EE593E091D287EA93
S113059090E0CF919FC2CF910895CF93DF93EC0168
S11305A0E8818E2F90E0FC013197E031F10508F0ED
S11305B048C0ED5EFF4F0994E0916000F0E0EE5416
S11305C0FF4F10823CC0E0916000F0E0EE54FF4F1A
S11305D081E034C0E0916000F0E0EE54FF4F82E02F
S11305E02DC0E0916000F0E0EE54FF4F83E026C0A0
S11305F080916000811102C084E00AC0815008C06B
S113060080916000843019F4109260001AC08F5FEA
S11306108093600016C0E0916000F0E0EE54FF4F5C
S11306208081833070F48F5F09C0E0916000F0E056
S1130630EE54FF4F8081882321F08150808380E035
S113064080DF1882DF91CF91089545D2892B09F478
S113065043C002D28A3051F481E08093AE001092FC
S1130660AF001092B0001092B10008959091AF00C5
S113067091111CC0E091B100F0E0E455FF4F90816E
S113068089130DC08091B1008F5F8093B100809178
S1130690B100823008F181E08093AF0004C0109271
S11306A0B1001092AF001092B00008959091B10083
S11306B09F5F9093B100E091B000F0E0EE50FF4FE7
S11306C080838091B0008F5F8093B000E091B00090
S11306D0F0E0EE50FF4F10820895C1980895C19A3A
S11306E00895CF93DF93C82FD62FF7DFD13011F4BD
S11306F0C29801C0C29A88E0C7FF02C0C39A01C071
S1130700C398C598CC0FC59A8150B1F7DF91CF91AA
S1130710E6CFCF93C82F61E081E2E3DF61E08C2F65
S11307208068DFDF61E080E2DCDF61E08CE0CF91B4
S1130730D8CFCF93DF9361E08CE0D3DF61E080E832
S1130740D0DFC8EFD1E060E080E0CBDF2197D9F7BC
S1130750DF91CF910895C09882E08A95F1F700C0A7
S1130760C09A82E08A95F1F700C061E081E2B9DFC6
S113077061E088ECB6DF61E086E0B3DF61E083E14D
S1130780B0DF61E080E2ADDF61E08CE0AADFD1CFD1
S1130790CF93C82F862F61E08064A3DF61E08C2FA4
S11307A08068CF919ECF0F931F93CF93DF93805296
S11307B096E0899F80011124C0E0D0E0F801EC0F9D
S11307C0FD1FEA5BFF4F849160E08BDF2196C6300A
S11307D0D105A1F7DF91CF911F910F910895CF9388
S11307E0C42FD6DF8C2FCF91DECF0F931F93CF93DF
S11307F0DF938A01CDDFE8018991882311F0D3DFEB
S1130800FBCFDF91CF911F910F9108958FEE87BB9E
S113081080E284BB82EF81BB88B38F7388BB089569
S1130820F8942FEF80E792E0215080409040E1F768
S113083000C00000EBDF37D08EDF7BDF88E469DFA8
S1130840FAD09FE088E10FB6F894A89581BD0FBE59
S113085091BD78940895E4DFCAE08091CF008111BE
S11308601092CF008091CE00882379F01092CE00B0
S1130870ECDE8091B8008111C093C9008091B7006B
S1130880811103C088EB90E088DE8091CD0088233D
S113089019F01092CD00CBDD8091CC008823E9F2D1
S11308A01092CC00DACF83E083BF82E882BF89B79D
S11308B0816089BF08951F920F920FB60F92112481
S11308C00F931F932F933F934F935F936F937F9354
S11308D08F939F93AF93BF93CF93DF93EF93FF9344
S11308E082E882BF8091CA009091CB0001969093D8
S11308F0CB008093CA0021E02093CF008091CA00EE
S11309009091CB006AE070E05FD1892B11F42093C1
S1130910CE008091CA009091CB0064E670E054D17F
S1130920892B19F481E08093CD008091CA009091C5
S1130930CB0068EE73E048D1892B79F481E0809391
S1130940CC008091C900882339F08091C90081507E
S11309508093C900979801C0979A829911C0809199
S1130960C8008F3F29F08091C8008F5F8093C80032
S113097080E090E064E070E0C1E0D0E0B4E60AC05A
S11309808091C800843618F080E18093B8001092FA
S1130990C800EECF22B3422F4F789E01062E01C02D
S11309A0220F0A94EAF7242B22BBA1E0A80F20E02F
S11309B030E043B34F7150E0FC01E20FF31F8E01AE
S11309C0022E02C0000F111F0A94E2F7E754FF4FF2
S11309D04017510741F440814F5F408340814436C2
S11309E040F0B08306C04081443618F0A093B800AC
S11309F010822F5F3F4FAF5F25303105D1F66F5F17
S1130A007F4F05968F30910529F6A895FF91EF91B8
S1130A10DF91CF91BF91AF919F918F917F916F9112
S1130A205F914F913F912F911F910F910F900FBEA6
S1130A300F901F90189586E080BD83E389B910BCA0
S1130A408AB188698AB91092D3001092D2001092A8
S1130A50D1001092D00008952091D2003091D3009B
S1130A608091D0009091D10028173907A9F3E09123
S1130A70D200F091D300EC52FF4F80812091D2003C
S1130A803091D3002F5F3F4F3093D3002093D20097
S1130A902091D2003091D3002431310521F41092F9
S1130AA0D3001092D20008955D9BFECF8CB90895B7
S1130AB00F931F93CF938C01C0E0F801EC0FF11D4D
S1130AC08081882319F0F0DFCF5FF7CFCF911F919A
S1130AD00F910895EDCF2091D0003091D1008091F5
S1130AE0D2009091D3002817390748F08091D000A4
S1130AF09091D1002091D2003091D30009C080910F
S1130B00D0009091D1002091D2003091D30044962E
S1130B10821B930B08951F920F920FB60F9211240C
S1130B208F939F93EF93FF93E091D000F091D100C6
S1130B308CB1EC52FF4F80838091D0009091D10012
S1130B4001969093D1008093D0008091D000909131
S1130B50D100449721F41092D1001092D000FF915B
S1130B60EF919F918F910F900FBE0F901F9018954A
S1130B701F920F920FB60F9211240F900FBE0F9079
S1130B801F901895CF93DF939C01FC013396CAE024
S1130B90D0E0CB01BE0118D0805D8293E217F30749
S1130BA0C1F71382DF91CF910895FC01CB012AE0B4
S1130BB030E0B90109D0805D8183CB01B90104D053
S1130BC0805D808312820895AA1BBB1B51E107C07C
S1130BD0AA1FBB1FA617B70710F0A61BB70B881FC9
S1130BE0991F5A95A9F780959095BC01CD01089558
S1070BF0F894FFCFA3
S1130BF4044272696768746E6573733A004F6E6C6D
S1130C04696E653A200052756E776179202000542C
S1130C146178697761792000456E645468726573FC
S1130C2400466C617368696E6700416C6C204C61AA
S1110C346D7000415430320A004154004154A6
S9030000FC
