:1000000055C00000CCC50000C0C500006CC0000099
:100010006AC0000068C0000066C0000064C0000044
:1000200062C00000A7C500005EC000005CC0000008
:1000300079C5000058C0000056C0000054C0000040
:1000400025C5000050C00000F3C500004CC00000F2
:100050004AC0000048C0000046C0000044C0000084
:1000600042C0000040C000003EC000003CC0000094
:100070003AC0000038C000002CC20000A0C200003E
:10008000E4C2000030C000002EC000000505E404FA
:10009000EB04F80405050C05310531053105310582
:1000A000310531053105310505050C0511241FBE4B
:1000B000CFEFD0E1DEBFCDBF11E0A0E0B1E0E0EFD7
:1000C000FCE000E00BBF02C007900D92A632B10722
:1000D000D9F725E0A6E2B1E001C01D92AD32B2072A
:1000E000E1F7C2D003C68CCF89B3807C803431F075
:1000F000803831F0811106C083E0089581E00895D1
:1001000082E0089580E0089589B38073803141F0E2
:10011000803221F0811106C083E0089581E00895C6
:1001200082E0089580E00895813059F038F08230FF
:1001300061F0833071F485B383600AC085B38C7F2E
:1001400007C085B38C7F816003C085B38C7F8260DC
:1001500085BB613049F028F0623051F0633061F0C6
:10016000089585B3837F0BC085B3827F816007C00C
:1001700085B3817F826003C085B3807F836085BB48
:100180000895E1ECF1E089E194E0119211928E176B
:100190009F07D9F71092A4011092A3011092A60113
:1001A0001092A5011092A8011092A7011092AA0125
:1001B0001092A9011092AC011092AB010895CF9357
:1001C000C82FDFDFC11121C083E291E030D560E0AC
:1001D00070E089E194E05ED589E194E016D5609104
:1001E000280170E089E194E055D589E194E00DD5CE
:1001F0006091270170E089E194E04CD589E194E0B9
:1002000004D581E291E0CF9112C5CF9108958FE09E
:100210008ABB8FEF87BB84BB9AEF91BB9EEF92B9ED
:10022000809361008093640015BA82B38F7C82BB97
:100230000895F8942FEF8FE794E02150804090408C
:10024000E1F700C00000E3DF0FD416D4B2D481E0A0
:1002500081D023D29FE088E10FB6F894A89581BDA4
:100260000FBE91BD78940895E4DFC5E4D0E000E6C8
:1002700010E0809136018111109236018091350194
:1002800081111092350180913401882309F45AC0FC
:100290001092340180912601813059F425DF80933A
:1002A000270132DF809328019091270120910001DE
:1002B00006C090912701209100018091280192139E
:1002C00004C020910101821731F0909300018093C6
:1002D000010180E074DF609128018091270124DF13
:1002E0008091270190E09093030180930201809117
:1002F000280190E0909305018093040180912601EC
:1003000090E09093070180930601D0930901C09378
:10031000080110930B0100930A01D0930D01C093C3
:100320000C0110930F0100930E01D0931101C093A3
:1003300010011093130100931201D0931501C09383
:10034000140131D380913301882309F492CF1092A4
:1003500033018FCF809329010895919A0895919840
:1003600008956F5F40E050E02FEF3FEF70E04617D9
:100370005707B4F4FC01E40FF51FE0812E27E8E0F5
:10038000D901A170BB2736952795AB2B21F0F1E061
:100390002F27F0EA3F27E15099F74F5F5F4FE7CFF4
:1003A000DC01A60FB71FEC91F0E06F5F7F4FA90152
:1003B0005527E417F50751F4FC01E60FF71F4081BC
:1003C00050E0E32FFF274E175F0741F02C93FC010D
:1003D000E60FF71F308380E090E0089581E090E021
:1003E0000895FB01A3E0F695E795AA95E1F7E80FDC
:1003F000F91F808190E06770772702C095958795F7
:100400006A95E2F7F901B3E0F695E795BA95E1F759
:1004100027703327E40FF51F308180FF08C081E08B
:1004200090E001C0880F2A95EAF7832B08C081E08D
:1004300090E001C0880F2A95EAF780958323808396
:10044000089580E280932E0110922D0110922C01CC
:10045000089580912E0185FF3BC080912C019091E1
:100460002D01019690932D0180932C0180912E01F6
:1004700081FF23C080912C0190912D01079721F4D9
:1004800080912E01806422C080912C0190912D01D9
:100490004297F1F490912D048091290198130CC09A
:1004A00060912F017091300163508DE294E059DF2B
:1004B000892B11F088E00AC0C4CF80912C01909163
:1004C0002D01409729F480912E01816080932E01A7
:1004D00008951F920F920FB60F9211240BB60F9230
:1004E0002F933F934F935F936F937F938F939F933C
:1004F000AF93BF93EF93FF9380919C0010922D01D7
:1005000010922C0190912E0193FD27C090912E0105
:1005100094FD23C090912E0192FD1FC090912E0159
:1005200091FF1BC090912E0190FD17C020912F01CB
:10053000309130012F3F310519F010F082DF2CC0CF
:10054000E0912F01F0913001E35DFB4F80838091BA
:100550002F019091300101961BC090912E0193FDC7
:100560001BC090912E0194FD17C090912E0192FD19
:1005700013C090912E0191FD0FC090912E0190FF1C
:100580000BC080932D0482E280932E0181E090E0E5
:100590009093300180932F01FF91EF91BF91AF9124
:1005A0009F918F917F916F915F914F913F912F918B
:1005B0000F900BBE0F900FBE0F901F9018951F92BB
:1005C0000F920FB60F9211240BB60F922F933F93F9
:1005D0008F939F93EF93FF9380912E018F7E809353
:1005E0002E0180912E01846080932E01E0912F01D5
:1005F000F0913001E35DFB4F808180939C008091FE
:100600002F019091300101969093300180932F013A
:1006100080911C0120912F013091300190E00196D2
:100620008217930729F480919A008F7D80939A0016
:10063000FF91EF919F918F913F912F910F900BBE62
:100640000F900FBE0F901F9018951F920F920FB62C
:100650000F9211240BB60F922F933F934F935F93FA
:100660006F937F938F939F93AF93BF93EF93FF937A
:1006700076DEE7DEFF91EF91BF91AF919F918F9171
:100680007F916F915F914F913F912F910F900BBE92
:100690000F900FBE0F901F901895899A60DE80E230
:1006A00080932E01089592E0980F90931C01682F7B
:1006B0008DE294E056DE80912E01806180932E01C0
:1006C0001092300110922F0148DEEAE9F0E08081BB
:1006D0008062808380912E01877F80932E01089510
:1006E000EDE2F4E0918190689183828382E0DBCF38
:1006F000EDE2F4E08581248190E0922B0895EDE213
:10070000F4E08381228190E0922B0895DC01FB01CB
:1007100090E0941751F02D913C91119730832D91D9
:100720003D9121839F5F3296F4CF0895FB0150E005
:10073000541779F0DC012C9111966C9130E0322F36
:100740002227260F311D3183208332965F5F029668
:10075000EFCF0895CF92DF92EF92FF920F931F9306
:10076000CF93DF937C018B016A01C2DFEC01C7DF0D
:1007700020912E04263011F4C1E0D0E080179107BB
:10078000A8F1C00ED11E9E01280F391FC216D30634
:1007900068F120912E04233021F020912E04243082
:1007A000C9F49E01220F331F2C3F3105F8F4CC0F02
:1007B000C0932F0440912F04282F201B60E374E086
:1007C000C701820F911D820F911DA0DF80912F0420
:1007D0008E5F34C020912E04203109F5209133041E
:1007E00030E0220F331F2C173D0718F483E078DF29
:1007F00028C040912F01509130012091330449507D
:10080000510930E04217530789F7801BB701680F81
:10081000711D680F711D4C2F84E394E00DC0209171
:100820002E04263071F4801BB701680F711D680F0C
:10083000711D41E081E394E079DF85E034DF81E000
:1008400001C080E0DF91CF911F910F91FF90EF9059
:10085000DF90CF900895CF92DF92EF92FF920F93A7
:100860001F93CF93DF936C018B017A0141DFEC0181
:1008700046DF20912E04253011F4C1E0D0E080172E
:10088000910708F451C0E00EF11E9E01280F391F98
:10089000E216F30608F448C020912E04223021F01D
:1008A00020912E04213099F5C93D27E0D207E0F5CB
:1008B0009E0143E0369527954A95E1F720932F0452
:1008C000AE0147705527452B49F0F901E05DFB4F1C
:1008D000108220912F042F5F20932F04E12CF12C04
:1008E0009C01201B310B8901CE15DF0561F0B80199
:1008F0006E0D7F1D970140E354E0C60172DD3FEFAE
:10090000E31AF30AF1CF80912F048E5F3FC020914C
:100910002E042F3069F52091330448E0249F900184
:1009200011242C173D0718F483E0DADE32C0409121
:100930002F0150913001209133044950510930E08A
:100940004217530789F7E12CF12C9C01201B310B36
:100950008901CE15DF05C9F098012E0D3F1DA601B6
:10096000B70184E394E03DDD3FEFE31AF30AF1CFF2
:1009700020912E04253069F49C01201B310BA60127
:1009800060E070E081E394E02CDD85E08CDE81E0C6
:1009900001C080E0DF91CF911F910F91FF90EF9008
:1009A000DF90CF90089580912E0183FF5CC0E0918D
:1009B0002E048E2F90E0FC013197E031F10508F014
:1009C00050C0EA5BFF4F89C148E050E060E070E052
:1009D0008BE291E040CF80913104409132048091CC
:1009E0002F046091300450E070E082E091E00CC090
:1009F000809131044091320480912F046091300441
:100A000050E070E086E191E0A5CE48E050E060E083
:100A100070E08AE291E0DECF8091310440913204AF
:100A200080912F046091300450E070E086E191E005
:100A300091DE80911A0190911B01877080932601AD
:100A4000811111C0809116019091170187708093D8
:100A500027018091180190911901877080932801D6
:100A6000089581E03DCE089584E083BF89E182BF8F
:100A700087B7816087BF089581E08EBD85E08BBD1B
:100A800082EC8ABD87B7806187BF08951F920F925D
:100A90000FB60F9211242F935F936F937F938F93D1
:100AA0009F93AF93BF9389E182BF80913101909171
:100AB00032010196909332018093310121E020931D
:100AC000360180913101909132016AE070E0F1D0FD
:100AD000892B11F4209335018091310190913201DD
:100AE00064E670E0E6D0892B19F481E0809334014C
:100AF000809131019091320168EE73E0DAD0892B58
:100B000019F481E080933301A895BF91AF919F9133
:100B10008F917F916F915F912F910F900FBE0F90EA
:100B20001F9018951F920F920FB60F9211240BB6BB
:100B30000F922F933F934F935F936F937F938F9376
:100B40009F93AF93BF93EF93FF9383DCA895FF919F
:100B5000EF91BF91AF919F918F917F916F915F9135
:100B60004F913F912F910F900BBE0F900FBE0F90A2
:100B70001F9018951F920F920FB60F921124A895EF
:100B80000F900FBE0F901F9018951F920F920FB6E7
:100B90000F9211240F900FBE0F901F9018951F9267
:100BA0000F920FB60F9211240F900FBE0F901F904F
:100BB000189586E0809395008FE589B91092900092
:100BC0008AB188698AB910923E0110923D01109253
:100BD0003C0110923B0186E280939D0087E1809367
:100BE000990010929800EAE9F0E08081886D808396
:100BF00010923A0110923901109238011092370187
:100C000008955D9BFECF8CB908950F931F93CF93EA
:100C10008C01C0E0F801EC0FF11D8081882319F0F0
:100C2000F0DFCF5FF7CFCF911F910F910895EDCFF8
:100C30001F920F920FB60F9211240BB60F928F9343
:100C40009F93EF93FF93E0913B01F0913C018CB1B6
:100C5000E15CFE4F808380913B0190913C010196C5
:100C600090933C0180933B0180913B0190913C012A
:100C70008436910521F410923C0110923B01FF91C2
:100C8000EF919F918F910F900BBE0F900FBE0F9021
:100C90001F901895FC01CB012AE030E0B90109D082
:100CA000805D8183CB01B90104D0805D8083128295
:100CB0000895AA1BBB1B51E107C0AA1FBB1FA617A3
:100CC000B70710F0A61BB70B881F991F5A95A9F7F5
:100CD00080959095BC01CD010895EE0FFF1F002473
:100CE000001C0BBE0790F691E02D0994F894FFCFFD
:100CF000FFFF0100020003000400050006000700DA
:100D0000080009000A0001000200000007415430F9
:060D1000320A004154000C
:00000001FF
